{
  "contractName": "EthergotchiGlobal",
  "abi": [
    {
      "inputs": [],
      "payable": false,
      "stateMutability": "nonpayable",
      "type": "constructor"
    },
    {
      "constant": true,
      "inputs": [],
      "name": "owner",
      "outputs": [
        {
          "internalType": "address payable",
          "name": "",
          "type": "address"
        }
      ],
      "payable": false,
      "stateMutability": "view",
      "type": "function"
    },
    {
      "constant": true,
      "inputs": [],
      "name": "getEthergotchis",
      "outputs": [
        {
          "components": [
            {
              "internalType": "uint256",
              "name": "id",
              "type": "uint256"
            },
            {
              "internalType": "address",
              "name": "ownerAdress",
              "type": "address"
            },
            {
              "internalType": "string",
              "name": "name",
              "type": "string"
            },
            {
              "internalType": "uint256",
              "name": "birthTimestamp",
              "type": "uint256"
            },
            {
              "internalType": "uint256",
              "name": "level",
              "type": "uint256"
            },
            {
              "internalType": "uint256",
              "name": "lastFeedTimestamp",
              "type": "uint256"
            },
            {
              "internalType": "uint256",
              "name": "lastPetTimestamp",
              "type": "uint256"
            },
            {
              "internalType": "uint256",
              "name": "seed",
              "type": "uint256"
            },
            {
              "internalType": "bool",
              "name": "isDead",
              "type": "bool"
            }
          ],
          "internalType": "struct EthergotchiGlobal.Ethergotchi[]",
          "name": "",
          "type": "tuple[]"
        }
      ],
      "payable": false,
      "stateMutability": "view",
      "type": "function"
    },
    {
      "constant": false,
      "inputs": [
        {
          "internalType": "string",
          "name": "_name",
          "type": "string"
        }
      ],
      "name": "generateEthergotchi",
      "outputs": [],
      "payable": true,
      "stateMutability": "payable",
      "type": "function"
    },
    {
      "constant": false,
      "inputs": [
        {
          "internalType": "string",
          "name": "_name",
          "type": "string"
        }
      ],
      "name": "setCurrentName",
      "outputs": [],
      "payable": false,
      "stateMutability": "nonpayable",
      "type": "function"
    },
    {
      "constant": true,
      "inputs": [],
      "name": "getCurrentName",
      "outputs": [
        {
          "internalType": "string",
          "name": "",
          "type": "string"
        }
      ],
      "payable": false,
      "stateMutability": "view",
      "type": "function"
    },
    {
      "constant": false,
      "inputs": [
        {
          "internalType": "uint256",
          "name": "id",
          "type": "uint256"
        }
      ],
      "name": "remove",
      "outputs": [],
      "payable": false,
      "stateMutability": "nonpayable",
      "type": "function"
    },
    {
      "constant": false,
      "inputs": [
        {
          "internalType": "uint256",
          "name": "id",
          "type": "uint256"
        }
      ],
      "name": "feed",
      "outputs": [],
      "payable": false,
      "stateMutability": "nonpayable",
      "type": "function"
    },
    {
      "constant": true,
      "inputs": [
        {
          "internalType": "address",
          "name": "_addr",
          "type": "address"
        }
      ],
      "name": "addressToString",
      "outputs": [
        {
          "internalType": "string",
          "name": "",
          "type": "string"
        }
      ],
      "payable": false,
      "stateMutability": "pure",
      "type": "function"
    },
    {
      "constant": true,
      "inputs": [
        {
          "internalType": "string",
          "name": "source",
          "type": "string"
        }
      ],
      "name": "stringToBytes32",
      "outputs": [
        {
          "internalType": "bytes32",
          "name": "result",
          "type": "bytes32"
        }
      ],
      "payable": false,
      "stateMutability": "pure",
      "type": "function"
    },
    {
      "constant": true,
      "inputs": [],
      "name": "rand",
      "outputs": [
        {
          "internalType": "uint256",
          "name": "",
          "type": "uint256"
        }
      ],
      "payable": false,
      "stateMutability": "view",
      "type": "function"
    }
  ],
  "bytecode": "0x608060405234801561001057600080fd5b50600080546001600160a01b03191633179055611035806100326000396000f3fe6080604052600436106100915760003560e01c806381f091861161005957806381f09186146101475780638da5cb5b14610167578063b452f8ce14610189578063cfb519281461019c578063f59dfdfb146101bc57610091565b80633b3dca761461009657806342b0bd88146100c15780634cc82215146100e35780635e57966d146101055780637327f09e14610125575b600080fd5b3480156100a257600080fd5b506100ab6101dc565b6040516100b89190610edf565b60405180910390f35b3480156100cd57600080fd5b506100d6610287565b6040516100b89190610eed565b3480156100ef57600080fd5b506101036100fe366004610cbe565b61035d565b005b34801561011157600080fd5b506100d6610120366004610c63565b610460565b34801561013157600080fd5b5061013a6105de565b6040516100b89190610ece565b34801561015357600080fd5b50610103610162366004610c89565b6107d6565b34801561017357600080fd5b5061017c610831565b6040516100b89190610ec0565b610103610197366004610c89565b610840565b3480156101a857600080fd5b506100ab6101b7366004610c89565b6109a2565b3480156101c857600080fd5b506101036101d7366004610cbe565b6109c0565b6000804342336040516020016101f29190610e96565b6040516020818303038152906040528051906020012060001c8161021257fe5b044542416040516020016102269190610e96565b6040516020818303038152906040528051906020012060001c8161024657fe5b044442010101010160405160200161025e9190610eab565b60408051808303601f190181529190528051602090910120620186a08082040290039150505b90565b336000908152600360205260409020546060906001600160a01b03161561034d5733600090815260036020908152604091829020600190810180548451600293821615610100026000190190911692909204601f8101849004840283018401909452838252909290918301828280156103415780601f1061031657610100808354040283529160200191610341565b820191906000526020600020905b81548152906001019060200180831161032457829003601f168201915b50505050509050610284565b61035633610460565b9050610284565b60005b60015481101561045c57336001600160a01b03166001828154811061038157fe5b60009182526020909120600160099092020101546001600160a01b03161480156103c8575081600182815481106103b457fe5b906000526020600020906009020160000154145b1561045457600181815481106103da57fe5b6000918252602082206009909102018181556001810180546001600160a01b03191690559061040c6002830182610ac0565b50600060038201819055600482018190556005820181905560068201819055600782018190556008909101805460ff1916905533815260026020526040902080546000190190555b600101610360565b5050565b604080518082018252601081526f181899199a1a9b1b9c1cb0b131b232b360811b60208201528151603380825260608281019094526001600160a01b03851692918491602082018180388339019050509050600360fc1b816000815181106104c457fe5b60200101906001600160f81b031916908160001a905350600f60fb1b816001815181106104ed57fe5b60200101906001600160f81b031916908160001a90535060005b60148110156105d3578260048583600c016020811061052257fe5b1a60f81b6001600160f81b031916901c60f81c60ff168151811061054257fe5b602001015160f81c60f81b82826002026002018151811061055f57fe5b60200101906001600160f81b031916908160001a905350828482600c016020811061058657fe5b825191901a600f1690811061059757fe5b602001015160f81c60f81b8282600202600301815181106105b457fe5b60200101906001600160f81b031916908160001a905350600101610507565b50925050505b919050565b60608060026000336001600160a01b03166001600160a01b031681526020019081526020016000205460405190808252806020026020018201604052801561064057816020015b61062d610b04565b8152602001906001900390816106255790505b5090506000805b6001548110156107ce57336001600160a01b03166001828154811061066857fe5b60009182526020909120600160099092020101546001600160a01b031614156107c6576001818154811061069857fe5b60009182526020918290206040805161012081018252600993909302909101805483526001808201546001600160a01b0316848601526002808301805485516101009482161594909402600019011691909104601f810187900487028301870185528083529495929493860193919290919083018282801561075b5780601f106107305761010080835404028352916020019161075b565b820191906000526020600020905b81548152906001019060200180831161073e57829003601f168201915b505050918352505060038201546020820152600482015460408201526005820154606082015260068201546080820152600782015460a082015260089091015460ff16151560c09091015283518490849081106107b457fe5b60209081029190910101526001909101905b600101610647565b509091505090565b60408051808201825233808252602080830185815260009283526003825293909120825181546001600160a01b0319166001600160a01b039091161781559251805192939261082b9260018501920190610b5b565b50505050565b6000546001600160a01b031681565b6001471161084d57600080fd5b600080546040516001600160a01b03909116919060019082818181858883f19350505050158015610882573d6000803e3d6000fd5b5060016040518061012001604052806001805490508152602001336001600160a01b03168152602001838152602001428152602001600181526020014281526020014281526020016108d26101dc565b815260006020918201819052835460018082018087559583529183902084516009909202019081558383015191810180546001600160a01b0319166001600160a01b039093169290921790915560408301518051919261093a92600285019290910190610b5b565b50606082015160038201556080820151600482015560a0820151600582015560c0820151600682015560e08201516007820155610100909101516008909101805460ff1916911515919091179055505033600090815260026020526040902080546001019055565b805160009082906109b75750600090506105d9565b50506020015190565b60005b60015481101561045c57336001600160a01b0316600182815481106109e457fe5b60009182526020909120600160099092020101546001600160a01b0316148015610a2b57508160018281548110610a1757fe5b906000526020600020906009020160000154145b15610ab5576201518060018281548110610a4157fe5b90600052602060002090600902016005015442031115610a91576001808281548110610a6957fe5b60009182526020909120600990910201600801805460ff191691151591909117905550610abd565b4260018281548110610a9f57fe5b9060005260206000209060090201600501819055505b6001016109c3565b50565b50805460018160011615610100020316600290046000825580601f10610ae65750610abd565b601f016020900490600052602060002090810190610abd9190610bd9565b6040518061012001604052806000815260200160006001600160a01b031681526020016060815260200160008152602001600081526020016000815260200160008152602001600081526020016000151581525090565b828054600181600116156101000203166002900490600052602060002090601f016020900481019282601f10610b9c57805160ff1916838001178555610bc9565b82800160010185558215610bc9579182015b82811115610bc9578251825591602001919060010190610bae565b50610bd5929150610bd9565b5090565b61028491905b80821115610bd55760008155600101610bdf565b8035610bfe81610fd5565b92915050565b600082601f830112610c1557600080fd5b8135610c28610c2382610f25565b610efe565b91508082526020830160208301858383011115610c4457600080fd5b610c4f838284610f7c565b50505092915050565b8035610bfe81610fe9565b600060208284031215610c7557600080fd5b6000610c818484610bf3565b949350505050565b600060208284031215610c9b57600080fd5b813567ffffffffffffffff811115610cb257600080fd5b610c8184828501610c04565b600060208284031215610cd057600080fd5b6000610c818484610c58565b6000610ce88383610dc7565b9392505050565b610cf881610f60565b82525050565b610cf8610d0a82610f60565b610fb4565b6000610d1a82610f53565b610d248185610f57565b935083602082028501610d3685610f4d565b8060005b85811015610d705784840389528151610d538582610cdc565b9450610d5e83610f4d565b60209a909a0199925050600101610d3a565b5091979650505050505050565b610cf881610f6b565b610cf881610284565b6000610d9a82610f53565b610da48185610f57565b9350610db4818560208601610f88565b610dbd81610fc5565b9093019392505050565b8051600090610120840190610ddc8582610d86565b506020830151610def6020860182610cef565b5060408301518482036040860152610e078282610d8f565b9150506060830151610e1c6060860182610d86565b506080830151610e2f6080860182610d86565b5060a0830151610e4260a0860182610d86565b5060c0830151610e5560c0860182610d86565b5060e0830151610e6860e0860182610d86565b50610100830151610e7d610100860182610d7d565b509392505050565b610cf8610e9182610284565b610284565b6000610ea28284610cfe565b50601401919050565b6000610eb78284610e85565b50602001919050565b60208101610bfe8284610cef565b60208082528101610ce88184610d0f565b60208101610bfe8284610d86565b60208082528101610ce88184610d8f565b60405181810167ffffffffffffffff81118282101715610f1d57600080fd5b604052919050565b600067ffffffffffffffff821115610f3c57600080fd5b506020601f91909101601f19160190565b60200190565b5190565b90815260200190565b6000610bfe82610f70565b151590565b6001600160a01b031690565b82818337506000910152565b60005b83811015610fa3578181015183820152602001610f8b565b8381111561082b5750506000910152565b6000610bfe826000610bfe82610fcf565b601f01601f191690565b60601b90565b610fde81610f60565b8114610abd57600080fd5b610fde8161028456fea365627a7a72315820a3b50b1f3c371709fc67b32ccebeff81f7248ecae7a4eaa83db3a721f4cbf30b6c6578706572696d656e74616cf564736f6c63430005100040",
  "source": "pragma experimental ABIEncoderV2;\r\npragma solidity >=0.4.22 <0.9.0;\r\n\r\ncontract EthergotchiGlobal {\r\n    struct Ethergotchi {\r\n        uint256 id;\r\n        address ownerAdress;\r\n        string name;\r\n        uint256 birthTimestamp;\r\n        uint256 level;\r\n        uint256 lastFeedTimestamp;\r\n        uint256 lastPetTimestamp;\r\n        uint256 seed;\r\n        bool isDead;\r\n    }\r\n\r\n    struct Owner {\r\n        address ownerAddress;\r\n        string name;\r\n    }\r\n\r\n    address payable public owner;\r\n    Ethergotchi[] gotchis;\r\n    mapping(address => uint256) ownerGotchiCount;\r\n    mapping(address => Owner) owners;\r\n\r\n    constructor() public {\r\n        owner = msg.sender;\r\n    }\r\n\r\n    function getEthergotchis() public view returns (Ethergotchi[] memory) {\r\n        Ethergotchi[] memory returnedGotchis = new Ethergotchi[](\r\n            ownerGotchiCount[msg.sender]\r\n        );\r\n        uint256 returnIndex = 0;\r\n\r\n        for (uint256 index = 0; index < gotchis.length; index++) {\r\n            if (gotchis[index].ownerAdress == msg.sender) {\r\n                returnedGotchis[returnIndex] = gotchis[index];\r\n                returnIndex++;\r\n            }\r\n        }\r\n\r\n        return returnedGotchis;\r\n    }\r\n\r\n    function generateEthergotchi(string memory _name) public payable {\r\n        require(address(this).balance > 1 wei);\r\n        owner.transfer(1 wei);\r\n        gotchis.push(\r\n            Ethergotchi(\r\n                gotchis.length,\r\n                msg.sender,\r\n                _name,\r\n                block.timestamp,\r\n                1,\r\n                block.timestamp,\r\n                block.timestamp,\r\n                rand(),\r\n                false\r\n            )\r\n        );\r\n        ownerGotchiCount[msg.sender]++;\r\n    }\r\n\r\n    function setCurrentName(string memory _name) public {\r\n        owners[msg.sender] = Owner(msg.sender, _name);\r\n    }\r\n\r\n    function getCurrentName() public view returns (string memory) {\r\n        if (owners[msg.sender].ownerAddress != address(0)) {\r\n            return owners[msg.sender].name;\r\n        } else {\r\n            return addressToString(msg.sender);\r\n        }\r\n    }\r\n\r\n    function remove(uint256 id) public {\r\n        for (uint256 index = 0; index < gotchis.length; index++) {\r\n            if (\r\n                gotchis[index].ownerAdress == msg.sender &&\r\n                gotchis[index].id == id\r\n            ) {\r\n                delete gotchis[index];\r\n                ownerGotchiCount[msg.sender]--;\r\n            }\r\n        }\r\n    }\r\n\r\n    function feed(uint256 id) public {\r\n        for (uint256 index = 0; index < gotchis.length; index++) {\r\n            if (\r\n                gotchis[index].ownerAdress == msg.sender &&\r\n                gotchis[index].id == id\r\n            ) {\r\n                if (\r\n                    block.timestamp - gotchis[index].lastFeedTimestamp > 86400\r\n                ) {\r\n                    // 24h\r\n                    gotchis[index].isDead = true;\r\n                    return;\r\n                }\r\n                gotchis[index].lastFeedTimestamp = block.timestamp;\r\n            }\r\n        }\r\n    }\r\n\r\n    function addressToString(address _addr)\r\n        public\r\n        pure\r\n        returns (string memory)\r\n    {\r\n        bytes32 value = bytes32(uint256(_addr));\r\n        bytes memory alphabet = \"0123456789abcdef\";\r\n\r\n        bytes memory str = new bytes(51);\r\n        str[0] = \"0\";\r\n        str[1] = \"x\";\r\n        for (uint256 i = 0; i < 20; i++) {\r\n            str[2 + i * 2] = alphabet[uint8(value[i + 12] >> 4)];\r\n            str[3 + i * 2] = alphabet[uint8(value[i + 12] & 0x0f)];\r\n        }\r\n        return string(str);\r\n    }\r\n\r\n    function stringToBytes32(string memory source)\r\n        public\r\n        pure\r\n        returns (bytes32 result)\r\n    {\r\n        bytes memory tempEmptyStringTest = bytes(source);\r\n        if (tempEmptyStringTest.length == 0) {\r\n            return 0x0;\r\n        }\r\n\r\n        assembly {\r\n            result := mload(add(source, 32))\r\n        }\r\n    }\r\n\r\n    function rand() public view returns (uint256) {\r\n        uint256 seed = uint256(\r\n            keccak256(\r\n                abi.encodePacked(\r\n                    block.timestamp +\r\n                        block.difficulty +\r\n                        ((\r\n                            uint256(keccak256(abi.encodePacked(block.coinbase)))\r\n                        ) / (now)) +\r\n                        block.gaslimit +\r\n                        ((uint256(keccak256(abi.encodePacked(msg.sender)))) /\r\n                            (now)) +\r\n                        block.number\r\n                )\r\n            )\r\n        );\r\n\r\n        return (seed - ((seed / 100000) * 100000));\r\n    }\r\n}\r\n",
  "sourcePath": "C:/Users/Dennis/Desktop/Programming/Ethereum/Ethergotchi/contracts/Ethergotchi.sol",
  "compiler": {
    "name": "solc",
    "version": "0.5.16+commit.9c3226ce.Emscripten.clang"
  },
  "schemaVersion": "3.3.3",
  "updatedAt": "2021-02-04T21:03:41.971Z",
  "networkType": "ethereum",
  "devdoc": {
    "methods": {}
  },
  "userdoc": {
    "methods": {}
  }
}